{
  "contractName": "Bet",
  "abi": [
    {
      "anonymous": false,
      "inputs": [
        {
          "indexed": false,
          "internalType": "enum Bet.GameStatusEnum",
          "name": "gameStatus",
          "type": "uint8"
        },
        {
          "indexed": false,
          "internalType": "enum Bet.BetStatusEnum",
          "name": "originatorStatus",
          "type": "uint8"
        },
        {
          "indexed": false,
          "internalType": "address",
          "name": "originatorAddress",
          "type": "address"
        },
        {
          "indexed": false,
          "internalType": "uint256",
          "name": "originatorGuess",
          "type": "uint256"
        },
        {
          "indexed": false,
          "internalType": "address",
          "name": "takerAddress",
          "type": "address"
        },
        {
          "indexed": false,
          "internalType": "enum Bet.BetStatusEnum",
          "name": "takerStatus",
          "type": "uint8"
        },
        {
          "indexed": false,
          "internalType": "uint256",
          "name": "takerGuess",
          "type": "uint256"
        },
        {
          "indexed": false,
          "internalType": "uint256",
          "name": "betAmount",
          "type": "uint256"
        },
        {
          "indexed": false,
          "internalType": "uint256",
          "name": "actualNumber",
          "type": "uint256"
        },
        {
          "indexed": false,
          "internalType": "uint256",
          "name": "pot",
          "type": "uint256"
        }
      ],
      "name": "BetStatus",
      "type": "event"
    },
    {
      "payable": true,
      "stateMutability": "payable",
      "type": "fallback"
    },
    {
      "constant": false,
      "inputs": [
        {
          "internalType": "uint8",
          "name": "_guess",
          "type": "uint8"
        }
      ],
      "name": "createBet",
      "outputs": [],
      "payable": true,
      "stateMutability": "payable",
      "type": "function"
    },
    {
      "constant": false,
      "inputs": [
        {
          "internalType": "uint8",
          "name": "_guess",
          "type": "uint8"
        }
      ],
      "name": "takeBet",
      "outputs": [],
      "payable": true,
      "stateMutability": "payable",
      "type": "function"
    },
    {
      "constant": false,
      "inputs": [],
      "name": "payout",
      "outputs": [],
      "payable": true,
      "stateMutability": "payable",
      "type": "function"
    },
    {
      "constant": false,
      "inputs": [],
      "name": "getBetOutcome",
      "outputs": [],
      "payable": false,
      "stateMutability": "nonpayable",
      "type": "function"
    }
  ],
  "bytecode": "0x608060405234801561001057600080fd5b506111c2806100206000396000f3fe60806040526004361061003f5760003560e01c80634a0ca9751461004157806363bd1d4a14610072578063c2bea1591461007c578063dc2be4c214610093575b005b6100706004803603602081101561005757600080fd5b81019080803560ff1690602001909291905050506100c4565b005b61007a6103f9565b005b34801561008857600080fd5b50610091610889565b005b6100c2600480360360208110156100a957600080fd5b81019080803560ff169060200190929190505050610a86565b005b600060038111156100d157fe5b600060020160009054906101000a900460ff1660038111156100ef57fe5b14801561012757506000600581111561010457fe5b600060030160010160149054906101000a900460ff16600581111561012557fe5b145b801561015e57506000600581111561013b57fe5b600060060160010160149054906101000a900460ff16600581111561015c57fe5b145b6101d0576040517f08c379a000000000000000000000000000000000000000000000000000000000815260040180806020018281038252601b8152602001807f412042657420697320616c726561647920696e2070726f63657373000000000081525060200191505060405180910390fd5b6040518060a001604052806000815260200160008152602001600160038111156101f657fe5b815260200160405180608001604052808460ff1681526020013373ffffffffffffffffffffffffffffffffffffffff1681526020016004600581111561023857fe5b8152602001348152508152602001604051806080016040528060008152602001600073ffffffffffffffffffffffffffffffffffffffff1681526020016000600581111561028257fe5b8152602001600081525081525060008082015181600001556020820151816001015560408201518160020160006101000a81548160ff021916908360038111156102c857fe5b02179055506060820151816003016000820151816000015560208201518160010160006101000a81548173ffffffffffffffffffffffffffffffffffffffff021916908373ffffffffffffffffffffffffffffffffffffffff16021790555060408201518160010160146101000a81548160ff0219169083600581111561034b57fe5b02179055506060820151816002015550506080820151816006016000820151816000015560208201518160010160006101000a81548173ffffffffffffffffffffffffffffffffffffffff021916908373ffffffffffffffffffffffffffffffffffffffff16021790555060408201518160010160146101000a81548160ff021916908360058111156103da57fe5b02179055506060820151816002015550509050506103f6610889565b50565b61040233610ca5565b6002600381111561040f57fe5b600060020160009054906101000a900460ff16600381111561042d57fe5b14801561046557506000600581111561044257fe5b600060030160010160149054906101000a900460ff16600581111561046357fe5b115b801561049c57506004600581111561047957fe5b600060030160010160149054906101000a900460ff16600581111561049a57fe5b105b80156104d35750600060058111156104b057fe5b600060060160010160149054906101000a900460ff1660058111156104d157fe5b115b801561050a5750600460058111156104e757fe5b600060060160010160149054906101000a900460ff16600581111561050857fe5b105b61057c576040517f08c379a000000000000000000000000000000000000000000000000000000000815260040180806020018281038252601c8152602001807f4e6f206f6e65206861732074616b656e2074686520426574207965740000000081525060200191505060405180910390fd5b60008060000154905060008060030160010160149054906101000a900460ff16905060008060060160010160149054906101000a900460ff16905060008060030160010160009054906101000a900473ffffffffffffffffffffffffffffffffffffffff16905060008060060160010160009054906101000a900473ffffffffffffffffffffffffffffffffffffffff169050610617610db2565b6003600581111561062457fe5b84600581111561063057fe5b14801561065357506003600581111561064557fe5b83600581111561065157fe5b145b156106ff578173ffffffffffffffffffffffffffffffffffffffff166108fc6002878161067c57fe5b049081150290604051600060405180830381858888f193505050501580156106a8573d6000803e3d6000fd5b508073ffffffffffffffffffffffffffffffffffffffff166108fc600287816106cd57fe5b049081150290604051600060405180830381858888f193505050501580156106f9573d6000803e3d6000fd5b5061087a565b6001600581111561070c57fe5b84600581111561071857fe5b141561076a578173ffffffffffffffffffffffffffffffffffffffff166108fc869081150290604051600060405180830381858888f19350505050158015610764573d6000803e3d6000fd5b50610879565b6001600581111561077757fe5b83600581111561078357fe5b14156107d5578073ffffffffffffffffffffffffffffffffffffffff166108fc869081150290604051600060405180830381858888f193505050501580156107cf573d6000803e3d6000fd5b50610878565b8173ffffffffffffffffffffffffffffffffffffffff166108fc600287816107f957fe5b049081150290604051600060405180830381858888f19350505050158015610825573d6000803e3d6000fd5b508073ffffffffffffffffffffffffffffffffffffffff166108fc6002878161084a57fe5b049081150290604051600060405180830381858888f19350505050158015610876573d6000803e3d6000fd5b505b5b5b610882610889565b5050505050565b600080905060008090506000809050600260038111156108a557fe5b600060020160009054906101000a900460ff1660038111156108c357fe5b14156108e8576000600101549250600060060160000154915060006003016000015490505b7fbfca0ac24299bdf5fa2a4b773d225c9818cc78178977ab6a11bde635772a1018600060020160009054906101000a900460ff16600060030160010160149054906101000a900460ff16600060030160010160009054906101000a900473ffffffffffffffffffffffffffffffffffffffff1684600060060160010160009054906101000a900473ffffffffffffffffffffffffffffffffffffffff16600060060160010160149054906101000a900460ff16886000600301600201548b6000800154604051808b60038111156109bb57fe5b60ff1681526020018a60058111156109cf57fe5b60ff1681526020018973ffffffffffffffffffffffffffffffffffffffff1673ffffffffffffffffffffffffffffffffffffffff1681526020018881526020018773ffffffffffffffffffffffffffffffffffffffff1673ffffffffffffffffffffffffffffffffffffffff168152602001866005811115610a4d57fe5b60ff1681526020018581526020018481526020018381526020018281526020019a505050505050505050505060405180910390a1505050565b60016003811115610a9357fe5b600060020160009054906101000a900460ff166003811115610ab157fe5b148015610ae9575060046005811115610ac657fe5b600060030160010160149054906101000a900460ff166005811115610ae757fe5b145b8015610b20575060006005811115610afd57fe5b600060060160010160149054906101000a900460ff166005811115610b1e57fe5b145b8015610b33575060006003016002015434145b610ba5576040517f08c379a000000000000000000000000000000000000000000000000000000000815260040180806020018281038252601e8152602001807f412042657420686173206e6f74206265656e207374617274656420796574000081525060200191505060405180910390fd5b60405180608001604052808260ff1681526020013373ffffffffffffffffffffffffffffffffffffffff16815260200160046005811115610be257fe5b81526020013481525060006006016000820151816000015560208201518160010160006101000a81548173ffffffffffffffffffffffffffffffffffffffff021916908373ffffffffffffffffffffffffffffffffffffffff16021790555060408201518160010160146101000a81548160ff02191690836005811115610c6557fe5b021790555060608201518160020155905050600060060160020154600060030160020154016000800181905550610c9a610ef5565b610ca2610889565b50565b600060030160010160009054906101000a900473ffffffffffffffffffffffffffffffffffffffff1673ffffffffffffffffffffffffffffffffffffffff168173ffffffffffffffffffffffffffffffffffffffff161480610d5a5750600060060160010160009054906101000a900473ffffffffffffffffffffffffffffffffffffffff1673ffffffffffffffffffffffffffffffffffffffff168173ffffffffffffffffffffffffffffffffffffffff16145b610daf576040517f08c379a00000000000000000000000000000000000000000000000000000000081526004018080602001828103825260378152602001806111576037913960400191505060405180910390fd5b50565b60008060020160006101000a81548160ff02191690836003811115610dd357fe5b02179055506000806001018190555060008060000181905550600080600301600001819055506000806003016002018190555060008060030160010160006101000a81548173ffffffffffffffffffffffffffffffffffffffff021916908373ffffffffffffffffffffffffffffffffffffffff16021790555060008060030160010160146101000a81548160ff02191690836005811115610e7157fe5b02179055506000806006016000018190555060008060060160010160006101000a81548173ffffffffffffffffffffffffffffffffffffffff021916908373ffffffffffffffffffffffffffffffffffffffff16021790555060008060060160010160146101000a81548160ff02191690836005811115610eee57fe5b0217905550565b610efd611111565b6000600101819055506002600060020160006101000a81548160ff02191690836003811115610f2857fe5b021790555060006001015460006003016000015414158015610f57575060006001015460006006016000015414155b15610fb5576003600060030160010160146101000a81548160ff02191690836005811115610f8157fe5b02179055506003600060060160010160146101000a81548160ff02191690836005811115610fab57fe5b021790555061110f565b6000600301600001546000600101541415611023576001600060030160010160146101000a81548160ff02191690836005811115610fef57fe5b02179055506002600060060160010160146101000a81548160ff0219169083600581111561101957fe5b021790555061110e565b6000600601600001546000600101541415611091576002600060030160010160146101000a81548160ff0219169083600581111561105d57fe5b02179055506001600060060160010160146101000a81548160ff0219169083600581111561108757fe5b021790555061110d565b6005600060030160010160146101000a81548160ff021916908360058111156110b657fe5b02179055506005600060060160010160146101000a81548160ff021916908360058111156110e057fe5b02179055506003600060020160006101000a81548160ff0219169083600381111561110757fe5b02179055505b5b5b565b60008042440190506001600a82604051602001808281526020019150506040516020818303038152906040528051906020012060001c8161114e57fe5b06019150509056fe4f6e6c792074686520426574206f726967696e61746f72206f722074616b65722063616e2063616c6c20746869732066756e6374696f6ea265627a7a723158209edb2fb4c58692ae2f39d1dab3111f90d08afe285db52fecb7454bc2e924fd0a64736f6c63430005100032",
  "source": "pragma solidity >=0.5.0;\ncontract Bet {\n\n    //status enums\n    enum BetStatusEnum {STATUS_UNKNOWN, STATUS_WINNER, STATUS_LOSE, STATUS_TIE, STATUS_PENDING, STATUS_ERROR}\n    enum GameStatusEnum {STATUS_NOT_STARTED, STATUS_STARTED, STATUS_COMPLETE, STATUS_ERROR }\n\n    //the 'better' structure\n    struct ChessBet {\n        uint guess;\n        address payable addr;\n        BetStatusEnum status;\n        uint betAmount;\n    }\n\n    //the 'game' structure\n    struct Game {\n        uint pot;\n        uint outcome;\n        GameStatusEnum status;\n        ChessBet originator;\n        ChessBet taker;\n    }\n\n    //bet status event\n    event BetStatus (\n        GameStatusEnum gameStatus,\n        BetStatusEnum originatorStatus,\n        address originatorAddress,\n        uint originatorGuess,\n        address takerAddress,\n        BetStatusEnum takerStatus,\n        uint takerGuess,\n        uint betAmount,\n        uint actualNumber,\n        uint pot\n    );\n\n    //the game\n    Game game;\n\n    //fallback function\n    function() external payable {}\n\n    function resetGame() private {\n        //reset game\n        game.status = GameStatusEnum.STATUS_NOT_STARTED;\n        game.outcome = 0;\n        game.pot = 0;\n\n        game.originator.guess = 0;\n        game.originator.betAmount = 0;\n        game.originator.addr = address(0);\n        game.originator.status = BetStatusEnum.STATUS_UNKNOWN;\n\n        game.taker.guess = 0;\n        game.taker.addr = address(0);\n        game.taker.status = BetStatusEnum.STATUS_UNKNOWN;\n    }\n\n    function createBet(uint8 _guess) public payable {\n        require(\n            game.status == GameStatusEnum.STATUS_NOT_STARTED &&\n            game.originator.status == BetStatusEnum.STATUS_UNKNOWN &&\n            game.taker.status == BetStatusEnum.STATUS_UNKNOWN,\n            \"A Bet is already in process\");\n        game = Game(\n            0, 0, GameStatusEnum.STATUS_STARTED,\n            ChessBet(_guess, msg.sender,  BetStatusEnum.STATUS_PENDING, msg.value),\n            ChessBet(0, address(0), BetStatusEnum.STATUS_UNKNOWN, 0));\n        getBetOutcome();\n    }\n\n    function takeBet(uint8 _guess) public payable {\n        require(\n            game.status == GameStatusEnum.STATUS_STARTED &&\n            game.originator.status == BetStatusEnum.STATUS_PENDING &&\n            game.taker.status == BetStatusEnum.STATUS_UNKNOWN &&\n            msg.value == game.originator.betAmount,\n            \"A Bet has not been started yet\");\n        game.taker = ChessBet(_guess, msg.sender, BetStatusEnum.STATUS_PENDING, msg.value);\n        game.pot = game.originator.betAmount + game.taker.betAmount;\n        generateBetOutcome();\n        getBetOutcome();\n    }\n\n    function payout() public payable {\n        checkPermissions(msg.sender);\n        require(\n            game.status == GameStatusEnum.STATUS_COMPLETE &&\n            game.originator.status > BetStatusEnum.STATUS_UNKNOWN &&\n            game.originator.status < BetStatusEnum.STATUS_PENDING &&\n            game.taker.status > BetStatusEnum.STATUS_UNKNOWN &&\n            game.taker.status < BetStatusEnum.STATUS_PENDING,\n            \"No one has taken the Bet yet\");\n\n        uint256 origPot = game.pot;\n        BetStatusEnum origStatus = game.originator.status;\n        BetStatusEnum takerStatus = game.taker.status;\n        address payable origAddress = game.originator.addr;\n        address payable takerAddress = game.taker.addr;\n\n        resetGame(); // optimistic accounting\n\n        if (origStatus == BetStatusEnum.STATUS_TIE && takerStatus == BetStatusEnum.STATUS_TIE) {\n            origAddress.transfer(origPot/2);\n            takerAddress.transfer(origPot/2);\n        } else {\n            if (origStatus == BetStatusEnum.STATUS_WINNER) {\n                origAddress.transfer(origPot);\n            } else if (takerStatus == BetStatusEnum.STATUS_WINNER) {\n                takerAddress.transfer(origPot);\n            } else {\n                origAddress.transfer(origPot/2);\n                takerAddress.transfer(origPot/2);\n            }\n        }\n        getBetOutcome();\n    }\n\n    function getBetOutcome() public {\n\n        //hide the bets and outcome\n        uint actualNumber = 0;\n        uint takerGuess = 0;\n        uint originatorGuess = 0;\n\n        if (game.status == GameStatusEnum.STATUS_COMPLETE) {\n            //allow the bets and outcome to be visible\n            actualNumber = game.outcome;\n            takerGuess = game.taker.guess;\n            originatorGuess = game.originator.guess;\n        }\n\n        emit BetStatus (\n            game.status,\n            game.originator.status,\n            game.originator.addr,\n            originatorGuess,\n            game.taker.addr,\n            game.taker.status,\n            takerGuess,\n            game.originator.betAmount,\n            actualNumber,\n            game.pot);\n    }\n\n    function checkPermissions(address sender) private view {\n        //only the originator or taker can call this function\n        require(\n            sender == game.originator.addr || sender == game.taker.addr,\n            \"Only the Bet originator or taker can call this function\");\n    }\n\n    function random() private view returns (uint) {\n        uint source = block.difficulty + now;\n        return (uint(keccak256(abi.encodePacked(source))) % 10) + 1;\n    }\n\n    function generateBetOutcome() private {\n        game.outcome = random();\n        game.status = GameStatusEnum.STATUS_COMPLETE;\n\n        if ((game.originator.guess != game.outcome) && (game.taker.guess != game.outcome)) {\n            game.originator.status = BetStatusEnum.STATUS_TIE;\n            game.taker.status = BetStatusEnum.STATUS_TIE;\n        } else if (game.outcome == game.originator.guess) {\n            game.originator.status = BetStatusEnum.STATUS_WINNER;\n            game.taker.status = BetStatusEnum.STATUS_LOSE;\n        } else if (game.outcome == game.taker.guess) {\n            game.originator.status = BetStatusEnum.STATUS_LOSE;\n            game.taker.status = BetStatusEnum.STATUS_WINNER;\n        } else {\n            game.originator.status = BetStatusEnum.STATUS_ERROR;\n            game.taker.status = BetStatusEnum.STATUS_ERROR;\n            game.status = GameStatusEnum.STATUS_ERROR;\n        }\n    }\n}",
  "sourcePath": "/Users/ricomeinl/Desktop/random/ChessOracle/ChessBetDapp/contracts/Bet.sol",
  "compiler": {
    "name": "solc",
    "version": "0.5.16+commit.9c3226ce.Emscripten.clang"
  },
  "schemaVersion": "3.3.3",
  "updatedAt": "2021-01-20T12:01:43.952Z",
  "networkType": "ethereum",
  "devdoc": {
    "methods": {}
  },
  "userdoc": {
    "methods": {}
  }
}